:020000020000FC
:100000000C9425000C9424000C9424000C942400DF
:100010000C9424000C946B000C946B000C94240042
:100020000C9424000C9424000C9424000C942400C0
:100030000C9424000C9424000C9424000C942400B0
:100040000C9477000C94240018950FEF0DBF00E17D
:100050000EBF00EF04BB7FD15527FF24E9D20AE68B
:1000600003BF01E007BF7894C9E7D1E000270993F7
:100070000883CBE7D1E00027099308830FEFD02E48
:1000800001D3F8942CD36ED399D38CE047D128D1E7
:100090008FEF87BB7727EE2402E0D02EC9E7D1E0AF
:1000A000002709930883CBE7D1E000270993088351
:1000B000CDE7D1E085E0899388278883A0E0B1E08F
:1000C000EEE6F1E00AE00ABF09B7006309BF51E0BC
:1000D00078940C9400048FB78F930F930027D01659
:1000E00011F401E0D02E0F918F918FBF1895DF93FF
:1000F000CF930F939F938F938FB78F9303E0D01677
:10010000B9F0C9E7D1E089919881019698838A93E3
:100110008D300EE0900761F414D01FD000270993B2
:100120000883CBE7D1E089919881019698838A93DF
:100130005BD08F918FBF8F919F910F91CF91DF9166
:1001400018950F938F9301E0E01621F4EE2484E1DB
:10015000E5D0C6D08F910F910895DF93CF930F9381
:100160009F938F930FEFD016C9F1CDE7D1E009909F
:100170001990CBE7D1E0299039902014310470F127
:1001800001E0D01699F402E0D02EA0D01B975CD0ED
:100190001B96C8E7D1E00881CDE7D1E0899198812D
:1001A000800F0027901F98838A9318C0DD2493D076
:1001B00073957F1529F47727A0E0B1E0EEE6F1E032
:1001C00068D01B960191CBE7D1E089919881800F8F
:1001D0000027901FCDE7D1E0899398838F919F915D
:1001E0000F91CF91DF910895DF93CF930F939F935A
:1001F0008F930FEFD016D1F002E0D016B8F0CFE712
:10020000D1E089919881019798838A9378F484E862
:1002100093E08993988301E0C01621F403E008BBC2
:10022000CC2404C000E008BB01E0C02E8F919F9158
:100230000F91CF91DF9108954172726976656420C4
:1002400061743A2020202020BF93AF93FF93EF9357
:100250008F936F9381E062D043D0E8E3F2E060E1F6
:100260009BD180EC5BD03CD08D91803019F056D082
:1002700046D0FACF6F918F91EF91FF91AF91BF91DF
:1002800008954E6578742073746174696F6E3A20B6
:100290002020BF93AF93FF93EF938F936F9381E0F1
:1002A0003DD01ED0E2E8F2E060E176D180EC36D0BD
:1002B00017D08D91803019F031D021D0FACF6F91C5
:1002C0008F91EF91FF91AF91BF9108950F9300E04F
:1002D00001BF0F9108950F9309E901BF0F91089590
:1002E0000F9382BB00270BBB0000DA9A00000000CE
:1002F0000000DA980000000000000F9108950F93AD
:1003000082BB08E00BBB0000DA9A0000000000008E
:10031000DA980000000000000F9108950F93002765
:1003200001BB02BB02E00BBB0000DA9A0000000038
:10033000000000B3DA9807FDF7CF00270BBB0FEFE3
:1003400001BB0F9108958150904000000000000013
:100350000000C9F708950FEF01BB0ABB88E99AE3D3
:10036000F2DF88E3BDDF84E090E1EDDF88E3B8DF12
:1003700084E690E0E8DF88E3B3DFB2DFCFDF88E038
:10038000AFDFCCDF81E0ACDFC9DF86E0A9DFC6DF0D
:100390008EE0A6DF08950F931F932F932FEE44272F
:1003A00025BB0FEF0A95F1F703B30F700F3071F013
:1003B00021E03327102F122329F4513079F75527E4
:1003C0000C94F0013395220F0C94DA01433019F4A8
:1003D00051E00C94CE010894221F43950C94D00157
:1003E000433059F0333069F0032F000F030F040F2F
:1003F000039580E3800F0C940C028AE0830F0C9429
:100400000C02403029F0413031F083E20C940C02B0
:100410008AE20C940C0280E32F911F910F910895B2
:100420000F931F936F93112766278827B4DF6030DF
:1004300029F4082F81E072DF53DF802F6395833228
:10044000A1F0633010F0D2D0EECF803378F38A334E
:1004500068F7012F110F110F110F000F100F082F48
:100460000053100F5BDF4BDFE1CF812F6F911F91A6
:100470000F9108950F931F932F93AF93BF9322274C
:1004800011276627EE2487DF603029F4082F81E0EA
:1004900045DF26DF802F833211F40C94BF026B30CE
:1004A00018F0A4D01A97EBCF803361F401E0E01686
:1004B00019F484E133DF14DF80E230DF20DFEE2443
:1004C0000C94BC028A3299F46030E9F201E0E01643
:1004D00019F080E123DF04DFEE2480E21FDF0FDF6D
:1004E00080E11CDFFDDE11976A950C944302823394
:1004F00054F28A3344F68217E9F401E0E016D1F4AD
:10050000EE2411976A951395273341F0283351F063
:10051000293361F0133099F4112711C0143079F4A4
:1005200011270DC0143059F411E009C0153039F409
:1005300011E005C0282F112728330CF011E0825359
:10054000082F880F800F01E4800F810F01E0E01673
:1005500029F4082F84E1E2DEC3DE802FDFDECFDE68
:10056000082F80E1DBDEBCDE802FEE24E394C9E7B8
:10057000D1E00027099308838D93639584CF613080
:1005800018F434D00C943F0280E08D93BF91AF916A
:100590002F911F910F9108958F936F938591BEDED8
:1005A000AEDE6A95D9F76F918F9108950F938A30D7
:1005B00039F481E3B3DEA3DE80E3B0DEA0DE04C065
:1005C00000E3800FABDE9BDE0F910895496E7661EC
:1005D0006C69642120506C65617365207479706565
:1005E00020616761696E2020202020206F938F9307
:1005F00081E094DE75DEECECF5E060E1CDDF80ECCF
:100600008DDE6EDEECEDF5E0C7DF8F916F91089522
:10061000686F6C792020202020202020202020209E
:100620006F662073746174696F6E7320706C7320D1
:1006300075DE81E055DEE0E1F6E060E1ADDF6EDE23
:1006400080EC4EDEE0E2F6E0A7DFEADE0BE08017AA
:100650002CF401E0801710F00C943003C7DFF5CFC5
:10066000F82E0895506C656173652074797065206B
:100670006E616D656F662073746174696F6E73204F
:100680003A2020207727A0E0B1E0739581E046DE94
:1006900027DEE4E6F6E060E17FDF80EC3FDE20DE8F
:1006A000E4E7F6E06CE078DF872F80DFE0E8F6E053
:1006B00064E072DFDFDE1B967F1539F70895546919
:1006C0006D652066726F6D20737461746F6E207437
:1006D0006F202069733A20202020202020207727B7
:1006E000AEE6B1E01196739581E018DEF9DDEEEB30
:1006F000F6E060E151DF80EC11DEF2DD872F56DF9E
:10070000EEECF6E064E048DF7F1509F481E0872F26
:1007100083954CDFE2EDF6E06CE03EDF81DE0BE03E
:10072000801728F401E0801710F00C9499035EDF25
:10073000F5CF7F1519F08D930C947303AEE6B1E0FD
:100740008C93089553746F702074696D6520617483
:1007500020616E7973746174696F6E2069733A20D9
:100760002020202081E0DADDBBDDE4E4F7E060E179
:1007700013DF80ECD3DDB4DDE4E5F7E00DDF50DE20
:1007800006E0801728F402E0801710F00C94CA03EA
:100790002DDFF5CFA8E7B1E08C930895436F6D701E
:1007A0006C65746520636F6E666967205761697454
:1007B00020666F72203573202020202081E0AEDD7E
:1007C0008FDDECE9F7E060E1E7DEA8DD80EC88DDB5
:1007D000ECEAF7E0E1DE08950F939F938F930FEB20
:1007E00005BB8FEF9927AFDD03B30F70087019F4C5
:1007F000513011F4552751E08F919F910F91089539
:1008000002E0D016ECF7C7DD833209F0F9CF5EDDE8
:100810001D2D03E0D02EBFDD8332E9F75CDDD12E44
:040820000C94000430
:00000001FF
